:020000040800F2
:10100000480C0020D110000855270008DD18000802
:1010100000000000000000000000000000000000D0
:10102000000000000000000000000000D5270008BC
:10103000000000000000000057270008D727000824
:10104000E3100008E3100008E3100008E3100008B4
:10105000E3100008E3100008E3100008C9180008B6
:10106000E3100008C517000875180008511700089C
:10107000A9140008E3100008E3100008E3100008BA
:10108000452900086D290008E3100008F128000830
:10109000E31000081D290008E3100008E310000811
:1010A000E3100008E3100008E3100008E310000854
:1010B000E3100008E3100008E31000080348854629
:1010C00000F0B4F900480047FD410008480C00203A
:1010D0000448804704480047FEE7FEE7FEE7FEE7D6
:1010E000FEE7FEE7E1280008BD10000803460B43B9
:1010F0009B0703D009E008C9121F08C0042AFAD2CE
:1011000003E00B780370401C491C521EF9D2704753
:10111000D2B201E00270401C491EFBD2704700228F
:10112000F6E710B513460A4604461946FFF7F0FFE6
:10113000204610BDF8B502464A40D40F42004B008D
:1011400052085B089A4202D20246084611464A00FB
:1011500023D0C30D4A00DDB2120EAD1A202D35DAB0
:1011600049020126490AF6058A19002C00D052428C
:1011700020214F1B1146B9402A411018C20D9A4236
:1011800021D0002C17D0012D08DCDA05801AD20FEF
:101190008019D207DBB200F00FF9F8BDDA05801A2A
:1011A000012340001B06C01880185A428018CA0F3D
:1011B0001043490007E04908C2071143DA05801AC5
:1011C00080194008801800F0EFF8F8BD6100012296
:1011D000511A001BF7E70122D2075140AAE701226A
:1011E000D2075040A6E770B502464A40D50F4000EE
:1011F0004A00ED0740085208002814D0002A12D0F7
:10120000C40DD30D41020120C0055202490A520A01
:10121000E41A091812187D34914201D3641C00E0CD
:101220004900002C01DA002070BD0023914201D357
:10123000891A0343400849000028F7D100290AD041
:10124000914202D10121C90705E0914201D2012159
:1012500001E00121C943E005C018401900F0A4F8DD
:1012600070BD0122D207002800DB101A002900DB24
:10127000511A814201D80120704700207047012295
:10128000D207002800DB101A002900DB511A814226
:1012900001D201207047002070470122D2070028A8
:1012A00000DB101A002900DB511A814201D3012012
:1012B0007047002070470122D207002800DB101A77
:1012C000002900DB511A814201D90120704700201A
:1012D0007047C217C10F504010B54018CA07962377
:1012E000002100F069F810BDC20F41004002012347
:1012F000400ADB05D207090EC0187F2901DA002059
:101300007047962903DC9623591AC84001E09639A4
:101310008840002AF4D04042704770B50446002946
:1013200003D000202022012310E0002801D000205B
:10133000C043C046C0460DE02546D5408D4205D38A
:101340000D469540641B1D46954040191546521E9A
:10135000002DF1DC214670BD70B5002504462E46F7
:10136000002911D0002C01DA01254442002901DABC
:10137000012649422046FFF7D0FFB54200D0404247
:10138000002D00D0494270BD002C02DA0121C907AE
:1013900002E0002C00DD03490846C046C046214655
:1013A00070BD0000FFFFFF7F002904DA401C4900E8
:1013B00001D140084000704770B40024050C05D1ED
:1013C0001024000402D1002921D01124050E01D1DE
:1013D00000020834050F01D10001241D850F01D141
:1013E0008000A41C002801DB4000641C002908D0F8
:1013F00020252E1B0D46F540A14000D00121294398
:10140000084301061B1B000ADB1D02D5002070BC2F
:101410007047DB05181880180029F8DA401C4900CD
:10142000F5D170BC4008400070470000064C012513
:10143000064E05E0E36807CC2B430C3C984710347C
:10144000B442F7D3FFF73EFE7C7000089C700008A2
:1014500070B58C180578401C6B075B0F01D10378C1
:10146000401C2A1106D10278401C03E006780E7059
:10147000401C491C5B1EF9D12B0705D40023521ECA
:101480000DD40B70491CFAE70378401CCB1A921C50
:1014900003E01D780D70491C5B1C521EF9D5A1425A
:1014A000D8D3002070BD0000B0B5012085042D4CBC
:1014B0006168490314D4216829421CD1450460683D
:1014C00080032BD4206828424AD027480068274947
:1014D0000968490888423CD9256002F0FDFCB0BD8E
:1014E0002148006821490968490888420ED9656089
:1014F00002F0F2FCB0BD1C4800681C4909684908AC
:10150000884216D9256002F0E7FCB0BD02F0B4FBBA
:1015100017490978884223D16560B0BD1248006838
:1015200012490968490888420BD9656002F0D4FC69
:10153000B0BD02F0A1FB0E490978884210D12560A8
:10154000B0BD02F099FB0A490978884208D165606C
:10155000B0BD02F091FB06490978884200D12560B0
:10156000B0BDC0460C18024024000040EC0400202E
:101570001E00002005488188054A11804188054ADF
:1015800011800088044908807047C0460C0500207F
:10159000D2040020D6040020BC040020F0B597B08F
:1015A00000260D960C960B960A96099601231A05AD
:1015B00006925E48C1681143C160C1681140119133
:1015C0001199016801931943016000681840119056
:1015D0000327089711984020059007900520049054
:1015E000040707AD2046294600F0DAF90B96089764
:1015F000102007902046294600F0D2F94C48016897
:10160000049A1143FA22914301604A4801684A4A08
:10161000114001603B460397390302688A43019FEA
:10162000790351180160016820220A4302600168B1
:10163000059A91430160016880220A430260190201
:1016400002688A437902511801609A020592016882
:101650009143BA028918016038480168384A0A4043
:1016600038495118016016961597149613960F2055
:101670000490000312901196334C204614380290C7
:1016800011A900F047F9201F0168B9430160112139
:10169000490602688A437906511801607905224695
:1016A000083A13680B4313600168284A0A40F9049A
:1016B000511801602068042528430399C94301405B
:1016C00021602068702101432160204610380168A4
:1016D000A9430160016808229143016010960F96AA
:1016E0000E960DA9029800F0FBF8606928430B21C3
:1016F000884360613803216881432160606960210B
:1017000001439020814361610B49103120680840FA
:10171000206004980002616981430598081860619F
:10172000206806990843206017B0F0BD34100240CD
:10173000040802401C000240EFBFFFFF08270140E1
:10174000FFEF3F4E001000B014240140FFFFF73FB1
:10175000B0B5194801466C390A680A68920216D475
:101760000968090212D50121CA43036813400360C6
:10177000CB03124C656C9D43656423681340236062
:101780000F4A00231370683809050160B0BD014697
:101790006839012213050B60D14303680B400360D5
:1017A000D003064A536C83435364106808401060AA
:1017B000034800210170B0BD6C00024000440140AC
:1017C0002006002010B524480078002812D02148B7
:1017D000007800280ED021480168012421430160CF
:1017E0000021416021480078002827D004F034F916
:1017F000022026E01948011F0A6852070CD5184A32
:101800001278002A08D0174A136802241C430823C0
:101810009C431460042202600A68920705D4096898
:10182000090701D50121016010BD01680124214390
:1018300001600021416005F0C7FA04E004F092FA6B
:1018400020460B490870E00307490A6802430A6012
:1018500010BDC046880400208F0400200400024010
:101860009204002020040040081802407C07002059
:101870007904002010B5124C2068800609D4206835
:1018800000060DD4206880050FD4206800050FD411
:1018900010BD10206060FFF76DFE20680006F1D5D6
:1018A0008020606020688005EFD506480021017027
:1018B000012001026160216B8143216310BDC0469C
:1018C000000002408604002080B50120C0030249C8
:1018D000086004F04BF880BD0C180240FEE70000E1
:1018E0008268D20712D1C268094B13404A681A4372
:1018F0008B681343CA681A43C260032292070369C4
:101900009343096819430161002070470120704723
:10191000C73FFFFF10B58268D20713D1C268920299
:10192000134A11D54B68F02B0ED1C36813400A68D7
:101930001A43CB680C694969134323430B43C360C3
:10194000F0210FE0012010BDC36813400A681A435C
:101950008B681343CA681A430B6913434A691A43D5
:10196000C2604968826A0A438262002010BDC04694
:101970003CC2FEFFF0B50268002A0DD40268074B96
:101980001340F4C909681A4322432A4332433A43B5
:101990000A4302600020F0BD0120F0BD0F7C00FE74
:1019A000F0B584B00B68002B49D000250191009060
:1019B00010E07F437F433B460F2159438E435D43F5
:1019C0003543009805510199039D6D1C0B681C4619
:1019D000EC4035D00122AA401A40F6D003951446B7
:1019E00054434B6826465E43032767430568BD435F
:1019F00035430560FE4302935D1E2346012D05D845
:101A00008D685D43876837402F4387600D695D436C
:101A1000C76837402F43C760029D022D039DD4D174
:101A2000170A05D024244D690659002FC1D104E0BE
:101A300020244D690659002FBBD15B43BCE700232E
:101A40004A68521E012A05D8C968594342689A4318
:101A50000A434260002004B0F0BD000080B57D2143
:101A6000C900FFF75AFC401E034948600020886007
:101A70000520086080BDC04610E000E070B5044657
:101A8000904E351F2868382101409048082921D000
:101A9000102919D1316803220A408B49032A00D04A
:101AA0000846022A00D0014630684004400E4843F0
:101AB00031684906490F491CFFF72FFC3168490F6F
:101AC000491CFFF72AFC05E00C3E30688004410FFA
:101AD0007D48C8402060296889093C220A407D4928
:101AE00089581F221140C84060602968890A1C2358
:101AF0000B407749C9581140C840A06070BDC0462E
:101B0000B0B50C2825D0032851D16E4CA06C032110
:101B100008400A048018704A904251D06F4A90429F
:101B200047D06F4A904251D1201F006838220240AE
:101B30006648082A00D1C4E0102A00D08BE0226851
:101B40000A406149032A00D00846022A1FD00146F4
:101B50001DE05C4CA06C0007800F032830D00228E9
:101B600027D0012854D1201F006838210140574850
:101B7000082900D1A5E010296DD1216803220A406F
:101B80005149032A00D00846022A00D001462068A5
:101B90004004400E484321684906490F491CFFF79D
:101BA000BCFB2168490F491CFFF7B7FBB0BD002003
:101BB000B0BD0C3C20684005C11743480840B0BD8B
:101BC0000120C103206D80030840B0BD251F286897
:101BD000382202403D48082A4AD0102A42D12268C1
:101BE0000A403949032A00D00846022A00D001469B
:101BF00020684004400E484321684906490F491CAB
:101C0000FFF78BFB2168490F491CFFF786FB2FE08C
:101C1000251F2868382101402C48082940D0102968
:101C200038D1216803220A402749032A00D00846F8
:101C3000022A00D0014620684004400E4843216833
:101C40004906490F491CFFF768FB2168490F491CE9
:101C5000FFF763FB24E00C3C20688004410F1A4826
:101C6000C840B0BD0C3C20688004410F1648C840F5
:101C700029682A68920A1C231340154AD2581F2348
:101C80001A4089093C240C40124909591940C8409E
:101C9000D040B0BD0C3C20688004410F0A48C840C9
:101CA00029682A68920A1C231340094AD2581F2324
:101CB0001A4089093C240C40064909591940C8407A
:101CC000D040B0BD0C1002400024F40000127A0095
:101CD0004C7000080C7000080300030002000300B1
:101CE00001000300014908607047C046E40000207D
:101CF000B0B51F22D30234C99C433F239B029D43AE
:101D00000B782B4323430F242403A2431A430323BA
:101D10009B034C689C4314434A88154B1340234350
:101D20000A6A1A433D4B0C39984202D042640020A3
:101D3000B0BD104B1A404B690F4C1C4014438A69CC
:101D40000E4B13402343232212064C6A94431C4338
:101D500011225206CB6993432343012252070C6A96
:101D600094431C438A6A224342640020B0BDC046AB
:101D7000FF1F0000FFFF00CCFFFF0FCCFFFF0FDCB9
:101D8000B0B5056801229407A04205D0234B9842C4
:101D900002D0234B984217D170239D434B682B43AD
:101DA000204DA84214DD204CA04206DC1B4CA04272
:101DB00016D0204CA04213D02EE01C4CA0420FD0D5
:101DC0001B4CA0420CD027E02B46164DA842EADC63
:101DD000A04205D0124CA04202D0174CA0421BD109
:101DE00003242402A343CC681C4304608B68C362B1
:101DF0000B888362CE4BC3180A24E341072B06D815
:101E000014469C40E1231C4201D0097C01634169D6
:101E1000114341610020B0BD1C46E6E7002C0140A3
:101E200000040040FF2B0140FF43014000480140F7
:101E3000004401400040014000200040F0B584B063
:101E40000123BA4CA1424EDC012900D18BE01029BC
:101E500000D1C3E001273C02A14200D080E0016A2A
:101E6000A1430162B749491C13691B020B400321BE
:101E700002910902046A8C431C4311680391516862
:101E80000B022343AA4941180A24E1414568C46969
:101E900007291DD88F40E1210F4219D0029F390335
:101EA0008D43516901919169D66900960901A44E4B
:101EB0000E402E4300994D013543B9028B43A24990
:101EC000091D019EB6020E401E4391688B023343EA
:101ED000456099490C4003990C43C461D168C163C2
:101EE000036200233CE001242503A94200D1B4E0B1
:101EF0002504A94200D1E2E02505A94230D1016ABA
:101F0000A94301628A4943180A21CB41016A156835
:101F1000039555681669476D072B11D80291314614
:101F20002E4625469D40E1231D4235460E46029928
:101F300006D0A30444689C4393699B0223434360F7
:101F40007C4B1F40039B1B023B434365D268C26529
:101F5000032212059143720852050A432905DBE06A
:101F6000184604B0F0BD0127F943036A0B40036231
:101F700013690B40046A032102918C431C431668C9
:101F8000516821436A4BC3180A24E34145688469B8
:101F9000072B1BD803963E469E40E1231E4214D0D9
:101FA000029B1B029D437B02566902969769D66984
:101FB0009F432F4375003D430C239943029B5B08CD
:101FC000DB000B43916889001943039E45605A4B1F
:101FD0001C4034438461D26842639EE0016A10234E
:101FE00099430162016A3023994313695B085C01DC
:101FF0000C4317685168090121434D4C06190A2406
:10200000E64145688469072E1ED803970127B7402B
:10201000E126374217D00326B602B543536902932F
:102020009769D369BF002646474C3C402C43DD00EE
:1020300025433446C0239943029B5B08DB010B43D5
:10204000916889011943039F45603C4B1C403B024A
:1020500023438361D26882635FE0016AA94301621E
:10206000334945180A21CD41016A43681668029632
:10207000566817690397C769072D55D801962646F4
:10208000AE40E1252E424DD0A403A3439469A401A0
:102090001C43019E4460294B1F40029B1B023B4393
:1020A000C361D2680264032212039143244A1032AE
:1020B000039B1B0313400B43310319432DE01E4FB9
:1020C0007337016A39400162194946180A21CE4125
:1020D000016A15685368039313690293436D072ED1
:1020E00009D8B440E126344205D044683C409669A2
:1020F000360226434660104CE41C23402B434365C4
:10210000836DD2688265032212049143029A5208B9
:1021100052040A430399090411430162002318463B
:1021200004B0F0BD1C46B4E71C46B3E7FF0F000047
:1021300000D4FEBFFF8FFFFE8CFFFEFFFF8CFFFE73
:10214000F0DFFFFFFFFDFFFFFCF7FFFFF0B583B0FF
:1021500004460068C00724D10D4620683349014079
:10216000A86808432969014368690843E96901438C
:1021700021600320010362688A43E96811436160BA
:102180000002A1688143A8690843A060012628488D
:1021900084420ADC2948844216D0294884420CD063
:1021A0003BE00126304603B0F0BD2248844204D013
:1021B0002148844231D1032007E06846FFF75EFCE6
:1021C0000298002805D128E00C20FFF799FC002890
:1021D00023D06F68002F20D0296800260B291CD837
:1021E000890018A25158FFF798F80121C903EA693C
:1021F0008A420BD17908400040183946FFF78DF824
:102200001C4901400007400F401805E079084018BC
:102210003946FFF782F880B2E060E06A0F21884318
:1022200029880143E162304603B0F0BDF369FFEF56
:10223000FF4B0040004C004000380140004400408B
:1022400000480040010000000200000004000000FF
:1022500006000000080000000A0000000C0000005A
:10226000100000002000000040000000800000007E
:1022700000010000F0FF0000F0B58FB000270897C4
:102280000797069705970497DF4A10680121019187
:1022900008431060106808400E900E9810680221E4
:1022A00008431060106808400E900326039604202F
:1022B00002900E9805200007009002AC2146FFF71F
:1022C0006FFB069703960825029500982146FFF7B5
:1022D00067FB069703960295CF482146FFF760FB00
:1022E0000697039680250295CB482146FFF758FBB9
:1022F000C54AD06801990843D060D06808400E9064
:102300000D970C970B970A950D46480209900E9869
:10231000264C08A92046FFF72DFBB0042168814315
:1023200021602068224908402060201F02680A407E
:10233000026021681F4A114021600168114001605C
:102340000E971D4800681D49FEF7E7FFC82141436D
:102350000E910E98002817D00E98401E0E900E98E1
:10236000002811D00E98401E0E900E9800280BD019
:102370000E98401E0E900E98002805D00E98401E14
:102380000E900E980028E7D10D4841680D4A114083
:1023900041600168114001600B480168FF229143D0
:1023A00001602803E94908600FB0F0BD0402014054
:1023B000FFF7FFFFFFBFFFFFE400002080841E0047
:1023C00080180240FFFFFBFF0CE400E00E490846C6
:1023D0000C380E4A02600E4A02600A46083A002390
:1023E00013600B1F0B4A1A600B685B0708D00B6861
:1023F0005B0705D00B685B0702D00B685B07F3D166
:102400004A600549016070470C300040CCCC0000A8
:1024100055550000FF0F0000AAAA0000F0B5A7B0B4
:1024200000252595249523952295219510950C95A9
:102430000124E3020693BE4AD0681843D06021A964
:102440000D740D80D0681840199070482390199829
:102450006F4E3046FFF794FC3068802101910843AD
:102460003060B069082105910843B0611A951B9549
:102470001C951D951E951F9520956020199019AFEC
:10248000304621463A46FFF7D9FC0420C143049167
:10249000B0690840B061B06906990843B0611B9506
:1024A0001A95102130463A46FFF7C8FCB0695949E1
:1024B0000840B061F06905990843F0611B951A95D1
:1024C0002102029130463A46FFF7B8FCF0690499C0
:1024D0000840F061F06906990843F0611B951A9570
:1024E000210330463A46FFF7A9FCF0694949084004
:1024F000F061706D0599084370651B951A9521046C
:1025000030463A46FFF79AFC706D049908407065B2
:1025100070687021884370600F20000571688143E6
:1025200071600DA9CD813C200873B068019FB8434C
:10253000B06018951795169560061590149513952B
:102540001295600311900F950E950D953046FFF78B
:10255000CFFB77490868264620430860086820407A
:10256000039426902698086802242043086008688F
:10257000204026900C940B950A950995089407978E
:10258000269805200007069007AF3946FFF708FA9E
:102590000C940B950A95099508940796654E30465C
:1025A0003946FFF7FDF90C940B950A9509950894A7
:1025B000079430463946FFF7F3F90C940B950A95CA
:1025C0000995089402980790069E30463946FFF711
:1025D000E7F90C940B950A95099508940398400225
:1025E000079030463946FFF7DBF90C940B950A95B6
:1025F0000995089403988002079030463946FFF702
:10260000CFF927B0F0BDC04634100240690A00007F
:10261000002C0140FFFBFFFF00040050F0B58DB01F
:1026200000240C940B940A940994089440488168FF
:102630000222114381608168114002910299016870
:1026400011430160016811400192029102990168F1
:1026500001263143016000683040029002980796DD
:10266000069405940494039210200290314802A924
:10267000FFF796F93048016820221143DF23994380
:1026800001602E4801682E4B0B40036003210B03B1
:1026900005689D4305600368934303600268402317
:1026A0009A430260026880252A4302600A02036896
:1026B000934332029A180260890202688A43F10247
:1026C000511801601F480168FF22914301601E48B4
:1026D0000A90401CFC49086008A90C800B940994DE
:1026E0001B4F3C46183C2046FFF74AFBE843216855
:1026F00001402160394614390A6870239A430A6000
:10270000394610390A6802400A6038683043019936
:102710008843386038680C21884338603868F02175
:1027200088433860B8680A210143B9600DB0F0BD34
:10273000341002400004005000080240080002402B
:10274000EFBFFFFF10E400E0FFFF000000E100E04A
:102750001804004070477047B0B51848016801225E
:102760009143016000F072FC46211548415A48220D
:10277000825A51184A0813490B6DD21853080B6539
:102780002F24114D2C5D002C03D0447F5C43A30902
:1027900002E08C78130963439208D21A4024025352
:1027A000C386C87A002801D101F068F9074841685A
:1027B000074A914201D8491C4160B0BD0C2000403D
:1027C000780400201000002022060020F4040020DD
:1027D0000F2700007047704770B53C4A136802200D
:1027E000034305218B431360126801263202384DE2
:1027F0002B6813432B60B2022B68134208D12B685D
:10280000134205D12B68134202D12B681342F3D037
:102810002A6E32432A662A6E920708D42A6E9207DD
:1028200005D42A6E920702D42A6E9207F3D5EA687D
:10283000284B1340284A9A18EA6032062B68134343
:102840002B603207EB681343EB6072062B68134270
:1028500008D12B68134205D12B68134202D12B6893
:102860001342F3D00F221202AB689343AB60AA6805
:1028700002438A43AA60A9683820014010290BD07E
:10288000A9680140102907D0A9680140102903D088
:10289000A96801401029EED107200003A9688143EF
:1028A000A9600E4C2046FFF7D9F82046FFF71AFA28
:1028B0002046FFF717FAB005696D8143696503206B
:1028C0008007696D8143696570BDC0460020024084
:1028D000001002408C80FF1F020800200090D003EF
:1028E0000120C006014908607047C04608ED00E0BD
:1028F000B0B5074C2068074D2880FFF72DFF012059
:10290000C0430549086028882168081A2880B0BD9E
:102910002448014078070020102000400220C043D6
:1029200007490A68920703D40A68D20704D170479E
:1029300008600A68D207FAD0401C08607047C04699
:10294000104401400220C04307490A68920703D49B
:102950000A68D20704D1704708600A68D207FAD023
:10296000401C08607047C0461004004080B5054810
:102970000168C90704D00121C943016003F0B8FF11
:1029800080BDC04610100040F0B5A3B0FF20000687
:102990004C490A68824303208307D2180A60012445
:1029A000E102494A11600026219620961F961E9644
:1029B0001D9613961296119610960F960E960D96DA
:1029C0000C966104414BDA680A43DA60DA680A401F
:1029D000159215993E490A682C231343D322934339
:1029E0000B603C490A683C4B134010330B600203F8
:1029F0000B689343620302929A180A600A682023C4
:102A00009A430A600A6840239A430A600A6880274A
:102A10003A430A6002020B689343220201929A1819
:102A20000A6080020A688243A002101808601DA98B
:102A30000E740E8020964F201F9010201E90274D60
:102A40002846FFF79DF9286838432860A8690821BF
:102A50000143A96116961796189619961A961B9611
:102A60001C966020159015AA28462146FFF7E6F926
:102A7000A86904218843A86109A9CE810E7309962B
:102A80000A960B9614960E9602980D902846FFF71C
:102A90002FF90E4A106802210843106010680840A0
:102AA000229008910796069605910491019803904B
:102AB0002298904803A9FEF773FF286A20432862F2
:102AC00023B0F0BD08E400E000E100E03410024073
:102AD000140802406C000240EFBFFFFF00440140B9
:102AE000B0B582B0002001900090404C2068C00733
:102AF0007AD120683E490140012528070818206046
:102B00003C4800683C49FEF708FC400001900198F1
:102B1000002817D00198401E01900198002811D07C
:102B20000198401E0190019800280BD00198401E8A
:102B300001900198002805D00198401E019001984D
:102B40000028E7D16068032108400090606888434E
:102B500060602268294802401218183222602268F8
:102B6000002A08D52268002A05D52268002A02D545
:102B70002268002AF3D4009A63688B43134363608E
:102B8000402101910199002917D00199491E019115
:102B90000199002911D00199491E0191019900293B
:102BA0000BD00199491E01910199002905D0019985
:102BB000491E019101990029E7D12168014029436B
:102BC0002160204608380168C90708D10168C90793
:102BD00005D10168C90702D10068C007F1D0E80536
:102BE00007490A6802430A6002B0B0BD08240140E8
:102BF000E8FFFF6FE4000020400D0300E8FFFF7FC7
:102C00000827014070B53B4B186804210143082098
:102C10008143196002249C6203210A0505200007F4
:102C20000568954301221605AD1905609502856278
:102C30001D681543A5431D609A628B0404689C437C
:102C40009304E3180360530283628B0304689C437C
:102C50009303E318036080238362090403688B43B2
:102C60001104591801601102816270BD70B5F349F9
:102C70000A7DF14C20680C239843002A03D00822D7
:102C80001043206004E00422104320600220A06270
:102C9000032213050520000705689D4301235E05F7
:102CA000AD1905600E7D25689543002E03D00226E0
:102CB0003543256002E01D432560A3629404056846
:102CC000A543DC042C1904600C7D95030168A9431D
:102CD000002C03D0DC032143016004E09C0321436A
:102CE000016080218162110402688A4359045118ED
:102CF000016070BD00040050B0B536490A78192053
:102D00000001354B1C682509182D0BD8002A09D065
:102D100003229204314C24682568954325600022E3
:102D20000A701C680346C9339C420CD3002A0AD19E
:102D300001220A7003218904284B1B681C688C43FC
:102D4000910461181960264A13782649042B01D092
:102D5000012B08D1214B1B681C680C400546F0353F
:102D600025431D601378052B01D0022B08D11B4B86
:102D70001B681C680C400546E03525431D60137830
:102D8000062B01D0032B06D1144A126813680B409E
:102D9000D030184310601448037814481449154A79
:102DA000002B0BD003680B400360016811400160E9
:102DB0000A49496842680A434260B0BD074B5B68F4
:102DC00004681C43046043681340436042680A403F
:102DD0004260B0BD7B070020EC0400200000002012
:102DE000230000200FFCFFFF1E00002000180240FF
:102DF000FFFFFBFFFFFFFDFFF0B5411E052900D9D6
:102E000018E105200007C0467944097949008F443C
:102E1000022343719FCD0322910303688B43012159
:102E20008C031B19036080238362130404689C4392
:102E30000B04E31803600B0283627F4B1D680D4394
:102E40000224A5431D6099619204056895438A0494
:102E5000AA1802604A02C9E0774A116804230B43AA
:102E600008218B4313600224946203210B0505683B
:102E70009D4301231E05AD1905609D0285621568FD
:102E80001D43A543156093618A04046894439A0422
:102E9000A21802605A021EE0674A11680123194312
:102EA0000224A1431160936203218D040668AE439E
:102EB0009D04751905605D028562156804262E4320
:102EC0000825AE43166094610A05046894431A0508
:102ED000A21802609A028262584A157D890304682A
:102EE0008C435904584A002D00D18DE0DB031C436C
:102EF00004609BE003218A030468944301239A033E
:102F0000A2180260802282620A04046894431A04B0
:102F1000A21802601A028262474C226804251543F7
:102F20000822954325600225A5610A050668964397
:102F30001A05B21802609A028262404A177D26681A
:102F40008E43D9043F4A002F69D02E4326606DE09E
:102F5000394B196804220A4308218A431A60022463
:102F60009C6203210A050668964301252A05B218CA
:102F70000260AA0282628A0306689643AA03B21814
:102F80000260802282610A04066896432A04B2180D
:102F900002602A028262294A177D1E688E43E90474
:102FA000284A002F3FD026431E603FE0224B1A687C
:102FB00001210A430224A2431A6099620322950464
:102FC0000668AE438D04751905604D028562950350
:102FD0000668AE438D03751905608025856112046E
:102FE000056895430A04AA1802600A028262134A1D
:102FF000167D1D680C2295434905114A002E09D003
:10300000082425431D6011E09B031C4304608023BA
:1030100083620BE0042635431D609C6206E01E437C
:103020002660A36202E02E431E609D620368134087
:103030000B430360F0BDC046000400502206002090
:10304000FFFFCFFFFFFFF3FFFFFFFCFFB0B5254CF5
:10305000E07CE17B01290BD1401CE074C1B207295F
:1030600003D3214901200873E074012101400AE0E3
:10307000401EE074010604D11B48012101730620A3
:10308000E07401218143A173EFF3108072B6164DF5
:10309000E87B002802D1E07CFFF7AEFE62B6FFF7C6
:1030A0002BFE686F1149884201D30120E07210485D
:1030B00001460C31E27C52005118891E226D0A80B3
:1030C0000021E9762977C18982895118028A8918F5
:1030D000428A8918828A8918C28A8918091D490872
:1030E0000160B0BD1000002078040020C509000078
:1030F000F4040020F0B589B0E9480268C16F891A6C
:10310000E84D69818BB259092981E84C2488A34292
:1031100000D81FE1E44C2488A34200D31AE1E44B19
:1031200000271F8043689A1A92B201268A423246CB
:1031300000D83A46EA618268C3689A1A92B28A4213
:10314000324600D83A462A62026943699A1A92B214
:103150008A42324600D83A466A628269C3699A1A3C
:1031600092B28A42324600D83A460792AA62026A6E
:10317000436A9A1A92B28A42324600D83A46069276
:10318000EA62826AC36A9A1A92B28A42324600D8C6
:103190003A4605922A63026B436B9A1A92B28A42AC
:1031A000324600D83A4604926A63826BC36B9A1A1D
:1031B00092B28A42324600D83A460892AA63026C1A
:1031C000436C9A1A92B28A42324600D83A46029228
:1031D000EA63826CC36C9A1A92B28A42324600D871
:1031E0003A4601922A64026D436D9A1A92B28A425B
:1031F000324600D83A4600926A64826DC36D9A1ACC
:1032000092B28A42324600D83A460392AA64026ECB
:10321000436E9A1A92B28A42334600D83B46EB6418
:10322000826EC46EA21A92B28A42344600D83C46DC
:103230002C65026F456FAA1A92B28A42324600D8B4
:103240003A46984D6A65856FC06F401B80B28842D0
:1032500000D83E4693488665C169056A406A069F64
:103260007940029F7940C900059F7D40019F7D40C4
:10327000AD000D4304994840009948404700089824
:10328000079948400890D800A10008185100441838
:10329000884B18788849097801430DD100F0F4FC77
:1032A000844B002808D07F490879401C0871C0B2BF
:1032B000652801D301201870A0193D43089A03998D
:1032C0004A401978002901D00F214840FE210D40C5
:1032D000A91888423AD1734CE269236A27462437F9
:1032E000E1CF616B0791A16B089192025B021343DE
:1032F00002021A43EB011343B2011A437B01134349
:103300000798010119430898C000084326463C3637
:103310004ECE8D0005435100294319430020CF4A6A
:103320001080A289521CA281012E02D1634A01237E
:103330001370302910DB6278002A0DD0604800221B
:103340000270CD480180A27009B0F0BD5549C8890E
:10335000401CC88109B0F0BD4A1E2E2A06D8584824
:103360000170C54800220280C8B20EE0002902D0D8
:103370005348007809E02178012901D100216170CA
:103380004F490870BC490880A0700028E2D04D4920
:1033900009780029DED1484909780029DAD0E17896
:1033A000884202D00021A170E070052805D3A178E1
:1033B000491CA170C9B20629CCD30025A570411EB5
:1033C000142900D965E0C0467944097949008F4441
:1033D0000A14181C2060242B3236603B4551606073
:1033E000606060590E0039490120087051E09F4823
:1033F000407C3549087015204BE0344902200870A4
:1034000047E032490320087043E030490420087047
:103410003FE02E49052008703BE02B480121017058
:1034200092484574072034E0274805708F480121F1
:10343000417408202DE08D488574092029E08B48CF
:10344000012181740A2024E002F050FB8748407C6F
:10345000401C1E4908701A4800781AE00121114BDF
:10346000597107204002D8801A780D20012A10D106
:1034700059700EE00B494D7107204002FF30C880A3
:103480000E2006E07948407C0121081A0E49087098
:1034900014200B490D700E49087009B0F0BDC046EC
:1034A0002005002000040020900000206804002077
:1034B000BA040020880400208F0400208604002025
:1034C000210600208B0400201F0000208304002020
:1034D0007A070020F0B581B05C4E03CE081A5C4F2D
:1034E000C1195D4A083E91420ED85C4D00242C80E3
:1034F0005B4B5978002909D0D978002969D199788E
:1035000000292DD018892CE0524D88E05749897C3C
:103510001E4600290DD057490A887D21CB009042D4
:1035200015D9504C248809010091511C5B1C22467E
:1035300011E04C490A884E4909887D231B012F332D
:1035400000932F2302F04CF8312806DA06E04849B0
:1035500009880093002302F043F8044634615EE0DA
:103560001881491C99703F4F398880B200F07EFB6A
:10357000332804D33A4844700346394621E038885A
:103580000721414305CE101A4018C0083880344A3C
:103590009178083E33291346394612D3193881B23F
:1035A000314A8918CA0F8918490821221F462F4B12
:1035B00099540121F9702B49088002F00DF929492D
:1035C0003B4608881881D878002828D003CE081AEE
:1035D0001F4F19797D22D200FA32904208D2491C3D
:1035E0001971234A138807265E433018C0081080DB
:1035F000C8B24C2813D31E48018819318AB2BA18B0
:103600003332D30FD21852082023184EF254FE4FF3
:103610007C70018002F06AFA3C7102F0B9F8002077
:10362000288015480288F84909698C1A134B1B68D1
:103630009C4201DDD11806E0541A9C4203DDD11AE8
:10364000018001B0F0BD018001B0F0BD2005002077
:10365000DFFCFFFFB004002076050000BA04002064
:103660005C0400202C0000202AF9FFFF2206002025
:103670002A0000202E000020B40400202401002095
:1036800080B266490A680B689B1A9BB298420ED9B1
:103690000B689B1A9BB2984209D90B689B1A9BB284
:1036A000984204D90B689B1A9BB29842EBD870479A
:1036B000F0B500283ED003260640451E7D21C900F6
:1036C000554A564B002E32D01C681F683F1B1740CE
:1036D0008F420ED21F683F1B17408F4209D21F68CE
:1036E0003F1B17408F4204D21F683F1B17408F4279
:1036F000EBD3012E2C461BD01C681F683F1B1740C4
:103700008F420ED21F683F1B17408F4209D21F689D
:103710003F1B17408F4204D21F683F1B17408F4248
:10372000EBD3022E07D1841E032D1FD202E00446E4
:10373000032D1BD2F0BD1C681E68361B16408E423E
:103740000ED21E68361B16408E4209D21E68361BEA
:1037500016408E4204D21E68361B16408E42EBD3B2
:10376000C41E032D02D2E5E7241FE3D018681D68AC
:103770002D1A15408D420ED21D682D1A15408D420E
:1037800009D21D682D1A15408D4204D21D682D1ACC
:1037900015408D42EBD318681D682D1A15408D42D7
:1037A0000ED21D682D1A15408D4209D21D682D1AA2
:1037B00015408D4204D21D682D1A15408D42EBD361
:1037C00018681D682D1A15408D420ED21D682D1ADD
:1037D00015408D4209D21D682D1A15408D4204D224
:1037E0001D682D1A15408D42EBD318681D682D1ADF
:1037F00015408D42B8D21D682D1A15408D42B3D2A6
:103800001D682D1A15408D42AED21D682D1A154027
:103810008D42EBD3A8E7C046F8FF000024480140E2
:10382000F0B5764BC9337648438076490F6800255A
:103830002A4603E052182835782D77D071494E1961
:103840007168CF1B1BD1B768791A21D1F168CF1BE2
:1038500027D13769791A2DD17169CF1B33D1B76957
:10386000791A39D1F169CF1B3FD1376A791A45D11D
:10387000716ACF1B4BD1B76A791ADCD050E09CB289
:10388000A74201D247803B46D219B768791ADDD0EA
:103890009CB2A14201D241800B465218F168CF1B65
:1038A000D7D09CB2A74201D247803B46D219376994
:1038B000791AD1D09CB2A14201D241800B46521854
:1038C0007169CF1BCBD09CB2A74201D247803B4647
:1038D000D219B769791AC5D09CB2A14201D24180F0
:1038E0000B465218F169CF1BBFD09CB2A74201D240
:1038F00047803B46D219376A791AB9D09CB2A142A7
:1039000001D241800B465218716ACF1BB3D09CB2D2
:10391000A74201D247803B46D219B76A791A8AD0AA
:103920009CB2A14286D241800B4683E75109364DB5
:10393000A961364C2178012925D1591E89B2022965
:103940000AD80F21C9018A4206D20021A971304E3E
:1039500031700E262D490EE0191F89B2042912D8A4
:103960001921C9018A420ED2294901260E70274920
:103970000E70A91D0726274F3E7001260E702021CC
:10398000017025490E70254E317801290BD1C93BB4
:1039900099B21A4A914230D21D493F220A70012140
:1039A0003170022125E02778002F26D1002924D16B
:1039B000591E89B2022909D80F21C9018A4205D2AC
:1039C0000021A971124A11700E210DE0191F89B250
:1039D0000429DCD81921C9018A42D8D20C49012214
:1039E0000A702270AC1D07210A4A11700121217052
:1039F0002021094A012313700170F0BD574D0000CA
:103A00008C000020200500205C0400209104002090
:103A1000E9000020E800002090040020920400202B
:103A2000FF20000410490A68824303208005101813
:103A30000860012081026C4A11600C490C4A8A60BE
:103A40000C4ACA604A680C4B1340DA1C4A600A6888
:103A5000022313430B600A68082313430B600A68B0
:103A600002430A607047C04608E400E01C000240C0
:103A7000402401400C0500200000FFFF8148406801
:103A80005A490A6802430A607047C046B0B582B01E
:103A90004E480168012421430160016810220A4355
:103AA0000260210202680A430260016804220A439C
:103AB0000260016840220A430260A10202680A43D0
:103AC0000260210402680A430260210302680A437B
:103AD000026064210162014620390A6822430A60BB
:103AE000E503416A294341620C38016821430160C2
:103AF0003748016A2143016201682143016035486A
:103B000001460C390A6822430A60816821438160BA
:103B10000168214301600168A1430160EC4801682C
:103B200021430160416921434161A00701682143AC
:103B30000160416921434161E64801682143016018
:103B4000416921434161C1682143C160FDF726FD00
:103B5000FFF766FFFEF7C4FF002001901E480168D2
:103B6000214301601D4800681D49FDF7D6FBC000D8
:103B700001900198002817D00198401E01900198EB
:103B8000002811D00198401E0190019800280BD008
:103B90000198401E01900198002805D00198401E10
:103BA000019001980028E7D1FF2000060D490A681E
:103BB0008243E00710180860C048802101600B486C
:103BC00001682943016002B0B0BDC046202C01400D
:103BD000000400400C20004004020140E4000020EA
:103BE000400D030004E400E000E100E08018024022
:103BF00070B5194B186804210143082081431960EE
:103C000002249C6103210A050520000705689543ED
:103C100001221605AD190560950285621D681543E0
:103C2000A5431D609A618B0404689C439304E318C8
:103C30000360530283628B0304689C439303E3187D
:103C4000036080238361090403688B4311045918BE
:103C500001601102816270BD0004005002480168D9
:103C600001220A4302607047142C0140401AC11718
:103C70004840401A70470000024800680068400051
:103C8000C00F704700000020024801681020084063
:103C90007047C0461004005002480349016062B6F4
:103CA0007047C04608ED00E000100008F0B58DB088
:103CB0007D4A50680125284350605068284007908D
:103CC00007982807116801431160116814460140E4
:103CD000079107987548016808220A430260016845
:103CE0001022059211430160280271490A680243BB
:103CF0000A60FEF771FD204608380168294301601B
:103D00000168294007910799016802221143016067
:103D10000068104007900798201F01682943016040
:103D20000068284007900798624A10686249084076
:103D3000A903401810606802604908600B46FF2024
:103D40000290000411688143A80508181060A802B9
:103D50001860FEF791FAFEF761FB00270B970A97B0
:103D600009970897079720682843206007A91F2014
:103D700000900880206828400C90514809900C98C9
:103D8000504E3446083C2046FDF7FAFF8020039051
:103D9000C143206808400A460691206030684A49BD
:103DA000014031607020C3430493301F0168194003
:103DB0000160306810403060FEF730FC0B970A97C6
:103DC000099708970797EA03019237494868104313
:103DD000486048680E4610400C900C980298000607
:103DE000344A916881439160E8043449086007A926
:103DF000009808800A97324809900897334C20466B
:103E0000FDF7BEFF20680699084020600B970A97CF
:103E1000099708970797A8043246716801437160B3
:103E200007A90F743F260E80526802400C92244866
:103E300009900C98264C2046FDF7A2FF20680399B4
:103E4000084320600B970A97099708970797164A27
:103E50001068059908431060106808400C900C9891
:103E6000144A906814490840019940189060680409
:103E70001249086007A90E80322009900897154C56
:103E80002046FDF77DFF20680699084020606068A5
:103E9000049A10406060A0680840A06002F056FCE0
:103EA000FEF772FD0DB0F0BD3C1002400000014075
:103EB0000020024008E400E0FF00FFFF00E100E016
:103EC000FFFF000008000040F8BFFEFF0020004098
:103ED000004801400010004070B5C44C606F7E285F
:103EE00018D321480068214D7C2808D8E08FC008ED
:103EF0004A2804D8686880087D2800D270BD607D9B
:103F0000401C6075C0B2652804D301F097FB002007
:103F1000686070BDAA4D687B002809D00026FFF7B5
:103F2000ABFEA97B8842E9D0761C687B8642F6D33B
:103F3000EFF3108072B601F081FB4820215A46222F
:103F4000A15209490A682252002008600849886184
:103F50004022A25A521C0A624860086801220243A9
:103F60000A6062B670BDC04624000040F404002020
:103F70000C200040F0B583B0914EF16C914CC02202
:103F8000204601F03FFDE07D042801D30220E075CA
:103F9000207E014608398C4D28291BD818281CD3AF
:103FA0008A490091182130222B4601F019FB7086B6
:103FB000207E01460C390B2913D9FC210140082928
:103FC0001BD18449009107211022834B01F008FB8B
:103FD000708613E07C48308611E001460C390B29CD
:103FE000EBD800950C211822794B01F0F9FA708674
:103FF000207EFC2101400829E3D0708E85B27748ED
:1040000018380560607E0146323964290AD8217D5E
:1040100000290CD030850321FDF77FF9B0850A30E7
:10402000F0850AE05520B0859620308505E04108EE
:10403000B185400030850A31F185A07E282568438E
:104040001430B082022002F077FB6078002840D064
:10405000A07F0B2800D9052002F06EFB272100204D
:104060000290605421462031CA7832718A785C4BC4
:10407000D218F2832522A25CFA3232842022A25C7A
:104080005200584BD218728349784900564A891811
:10409000B1832421615C491E4A424A415349CA7096
:1040A000625D1A3A1523DB439A4201D80522625514
:1040B0002925675D0B3F0A23DA43974200D86355F1
:1040C0002A27E05D05460A3DEDB2F62D03D8E355FB
:1040D00017E0B58A5AE00923DB4343432E3BF370D4
:1040E000D8B2338D1B183385B38D1B18B385738FEE
:1040F0001B187387738D1B187385384D2B6803430A
:104100002B60029F2B23E05C7330C0B2B82801D82B
:10411000FF20E0542C20205C401E622801D80120A2
:1041200088712D23E05C0B38904201D80520E054C3
:104130002E20235C092B0AD8042B0DD80A461A32EC
:104140007B441B795B009F44022F050732008F766A
:104150004F76274A01201070B58AA8084A2800D84F
:10416000B771E17E2020FDF7D8F804460C212846DF
:10417000FDF7D3F82146FDF7D0F8308764212846B3
:10418000FDF7CBF82146FDF7C8F8F0864B208100FB
:104190000846C83000907D20C300174A284601F029
:1041A0001FFAB08403B0F0BD01204876D1E7104873
:1041B000077010480122027019310A46CAE7C0464A
:1041C0001000002022060020690A000034050000CB
:1041D000D21400009C0F00003B1F0000442C014043
:1041E0005E050000EE020000D60600007804002004
:1041F0000104002000040020B80B000000B591B0BD
:10420000FFF74AFD7F2040010168BE4A914211D16B
:104210004168BD4A91420DD1007B1F2805D02B2853
:1042200005D0352806D1B94802E0B94800E0B948C0
:10423000B949C864FFF73AFDFFF728FCFFF79AFE7B
:10424000B64E327911204240F1780223089359404A
:1042500011434A1E91417278AF4F3C78012394423A
:104260000E931A4600D80022114301290DD1307156
:104270000220F070701DAAA10C22FCF737FF7470A9
:10428000FA6CC021304601F03FFC788E3886707C95
:10429000401E411E8841F873307D002801D1002066
:1042A000F07426200190305CA14A002813D0002031
:1042B000F0740121B174B9717075B0753075104624
:1042C000BE307887B88D3230B885F88D3230F885B9
:1042D000388D323038857D200025109029462A46B9
:1042E00001F08CFD01F0FEFA924C0A952587FEF74D
:1042F0006DF891489149016001F0AEFB20780028EB
:1043000001D00120607102F0F9F9FF200F906830B0
:104310000D90109988000790C8000C90080110902B
:1043200008E08748056045608560FEF76BFC7A4FC2
:104330005820255283484068052801D3089800E09A
:104340000420B87478747C487C490160707D002832
:1043500008D0386D798E00914B086021C82201F099
:104360003FF938864220205A7749884209D3E17DB7
:10437000002901D000F0DEFC7449884201D300F02E
:10438000FFFC608D7249884237D32C20255E284679
:10439000FCF79FFF6F49FCF726FF0146E06EFCF734
:1043A000C9FEE0666C480078032809D0022816D0C0
:1043B00001280D991FD19931A07F0843022116E0F1
:1043C0005220205A65494143090C401A40084018C0
:1043D0000009C1B25648D6300843012107E0A8B20F
:1043E000C0B229214143C80A03214A0280185A4A0F
:1043F00011705B49088000206085608E0121C8280B
:104400000A4600D30A9A4F4B5D68642D00D80A997A
:10441000434243410C9CA5420E9C00D81C46002CF4
:10442000444C01D1114001D00021A174F17C00293C
:1044300003D09F2801D80021A174217A002906D039
:104440000D992931884208D20020A07405E09528F2
:1044500001D8642000E00A20F8713A48006803217E
:104460000B91FCF779FF01466067207B00282DD077
:104470000B2D2BD333488068FFF7F8FB616F109A40
:1044800091421FD24A0890421CD900202D4A506008
:10449000E279521CE2713A6D0C9B9A4200D943E3D7
:1044A000628F2F2A0E9A00D844E3B37C002B00D0F1
:1044B00045E3012A01D10020E0740120F872388D13
:1044C0004008E0851F488160002020733A6D237CFE
:1044D0000F980402234D284608380168A143002B99
:1044E00046D03D2A44D3016028681F4908401F492F
:1044F000243901432960281F016840200843BF2157
:1045000041E0C046DAE32559D963B84E00F8000807
:10451000007C000800F8010810000020220600209E
:104520004E657574726F6E52432047300000000074
:104530002A0300007804002000300040AAAA0000EE
:10454000342C0140F404002011270000419C00009D
:10455000214E00000000B44305040020AF470000D6
:104560000604002010E400E0FFFFFF0024000040EC
:1045700001229203114301602868E0490840286045
:10458000281F00680F998843DD4C291F0860A07B15
:10459000002816D05820DA490C5AD948C06EFCF7CA
:1045A000A3FE03465220D649095AD548828DD448E5
:1045B000807F0094D24C00F01BFC01F033FD002002
:1045C000A073607B401C6073C0B2C92800D281E038
:1045D000FCF7D0FF5A20205ACA494843CA49FCF781
:1045E0009CFECA490A88498C891A801A642670433D
:1045F000FCF7B2FE05461E355C2025525224C04809
:10460000005B072747435E20BD49085ABD49484320
:10461000BF49FCF782FEBF49C98C48433146FCF7CD
:104620007CFEC019C108B64809910153B44CBA497F
:104630000868BA4A1040001D0860627C5300B84FF9
:10464000F85A4421615AF952A577521CD3B2002579
:10465000632B2B4600D813466374A26F101A4018C0
:10466000A0673146FCF759FEA08680B22067A549B5
:104670004843AC49FCF751FE010400D52846A0850B
:10468000E0780028A84E23D0607AA249098C4143E3
:10469000099880B2814219D9208D401C2085217D46
:1046A000A24A5143A24A891880B2814210DA0024FA
:1046B00093484487FEF7A6FA00F0C0FF90480487AD
:1046C0008F48C4748E48C4758D4C01E0002020854D
:1046D0000020607300256575207D002800D1AAE0C8
:1046E000608F312800D2E0E0E17D002900D1DCE0DC
:1046F000882800D9A0E1A0780028864D10D08D4AE6
:10470000106801218843106000F098FF00248A4857
:10471000046044608460FEF7A9FA79488470784C9C
:104720004A22A05AE97B002900D193E2411E08B237
:1047300000280D9D284600D40846A0524C21625AFC
:10474000521E13B2002B2B4600D4134663524E2147
:10475000615A4A1E11B20029294600D411464E2240
:104760000B92A15240256B4C615B099500B2400051
:10477000724A105E0918608E48431099FCF7ECFDF0
:104780002D27F15D059748430A210691FCF7E4FDCA
:1047900080B201F0BFFF605B4C21594A515E490075
:1047A000664A515E4118608E4843109E3146FCF7C0
:1047B000D3FD5D49C95D4843069D2946FCF7CCFD04
:1047C00080B201F0ADFF0998205A27464C4C0B9956
:1047D000615E4900594A515E4118788E484331461E
:1047E000FCF7BAFD5049059A895C48432946FCF715
:1047F000B3FD80B201F09AFF4B48C57E5048294670
:10480000FCF78BFD06464F482946FCF786FD03461C
:10481000608F0096444E3021782200F0E1FEF88748
:1048200080B2FEF72DFF0D98F130F98FFCF775FD82
:10483000582160527EE5444801684448FCF78CFDED
:10484000E17C41435820215288B241494843C00C81
:10485000602160522F4FB9790029109908D07B8FC1
:104860003A8FF98EBC8F0094254C00F0B9FE0146BA
:10487000B9862B20325CA07F904209D9BB8F0121E1
:10488000009111460A390A325B0800F0A9FEB88689
:104890002D48406863285FD8396D079881425BD9FD
:1048A0000C202C4A322963D363E00121A170307FB0
:1048B000002800D135E52920305C4000154F0B95CC
:1048C0007D8E2C18133C0991A1B2388E484329469D
:1048D000FCF723FD281A401C56250949485308486F
:1048E000C487074C01F05CF8605B0B9D12490860BF
:1048F000486088600998E0731AE5C046FFFFFF0032
:1049000078040020E40C0000B80B0000A875FF1F1D
:10491000FF0F00001000002008240140E8FFFF7F87
:104920007E07002049050000220600207CFCFFFFD6
:10493000204E00000C200040342C01402A010020B1
:104940002A030000581B0000F4040020C0270900BF
:10495000CDCC000024000040606F0C210091642148
:104960000323079A00F03CFE396DF14A322900D248
:10497000022078732F20305C002809D0E08F1721A7
:10498000009164210D23109A00F02AFEF84A607706
:104990001068F849884200D2CCE4E07C012800D0BD
:1049A000C8E4A07C401CA07400F048FE01200690E2
:1049B000F872608F2F2803D8EF4838650020E07424
:1049C0000022EE4D6A60EA4E30684821605209923A
:1049D0003260396D0B9A4A4380B21018C1084209FF
:1049E0005200891A4023E15280083865E28688B275
:1049F0006968052913D23168F6490862F87CF97BA9
:104A0000012900D0A0E0401CF874C1B20729099D1B
:104A1000069E02D32673FE74304630409FE0316814
:104A20008142E9D231688142E6D231688142E3D2E3
:104A300031688142F3D3DFE70B950122A2704A234C
:104A4000E05ADE4FF97B00290D9D0292099300D1B7
:104A50001CE1411E08B20028284600D40846E05256
:104A60004C21625A521E13B2002B2B4600D413461F
:104A700063524E21615A4A1E11B20029294600D4C0
:104A800011464E220692A1524025795B049500B250
:104A90004000D64A105E0918788E4843109C214683
:104AA000FCF75AFC2D210591715C48430A210391C2
:104AB000FCF752FC80B201F02DFE785B4C21C14A1C
:104AC000515E4900C94A515E4118788E48432146DB
:104AD000FCF742FC059C315D4843039D2946FCF7E9
:104AE0003BFC80B201F01CFE0498385AB549069A86
:104AF000895E4900BD4A515E4118788E484310993D
:104B0000FCF72AFC315DAF4C48432946FCF724FCF6
:104B100080B201F00BFE608FC8286FD90B9D099EF3
:104B2000A5535020F8876CE00120628F2F2A0E9A3F
:104B300000D9BAE40246B37C002B00D1B9E40246A6
:104B4000012A00D1B7E4B8E4411EF9740806099DB2
:104B5000069E02D126730621F97430468843B87345
:104B6000EFF3108072B6E07B002802D1F87CFEF7EC
:104B700043F962B6FEF7C0F8606F9349884200D9E6
:104B8000FE72964E30460C30F97C49000818811EA2
:104B9000386D0880E5762577A5757168491C7160C8
:104BA000F289B3899A18338AD218738AD218B38AD1
:104BB000D218F38AD218121D52083260804E019A20
:104BC000B25C531E9A41737F002B0E9B00D113469B
:104BD000012B09D1142901D2FFF7ACFB1099491C14
:104BE000884206D3FFF7A6FB1099884201D3FFF74E
:104BF000A1FBFD72FEF742FFFFF79CFBF88F0B9DB8
:104C0000099EFEF73DFDA05B00286D4E704901D066
:104C1000FFF790FB029BE37425756C483865FB72C7
:104C200060676E4A90600860E57314205060707F82
:104C3000002801D0F88DE085387BF97B01293ED131
:104C4000401CF874C1B2072902D32373FB741846C1
:104C500018403DE0431C18B200210D9DA8420846B3
:104C600000DC1846A0524C22A35A5B1C1CB2AC427A
:104C70000C4600DC1C46534B9C521C464E229A5A52
:104C8000521C13B2AB4200DC68E568E5411C08B277
:104C9000A8420B9800DC0846E0524C21625A521C94
:104CA00013B2AB420B9B00DC134663524E21615A98
:104CB0004A1C11B2A9420B9900DCE1E6E1E6411E73
:104CC000F974080602D123730621F9741846884343
:104CD000B873EFF3108072B6E07B002802D1F87C45
:104CE000FEF78AF862B6FEF707F8606F3649884229
:104CF00001D90298F872394A10460C30F97C490003
:104D00000818801E396D0180E5762577D089918954
:104D10000818118A4018518A4018918A4018D18A7F
:104D20004018001D40081060FEF798FFFFF702FBD7
:104D300024000040FDF766FF0020A063E0752076A8
:104D4000254908604860886000F0C8FE0120010223
:104D50002348FCF7E4F9BFF34F8F22482249016052
:104D6000BFF34F8F00BF00BF00BF00BFFAE7C046D0
:104D700024000040C9AF000088130000F4040020A4
:104D8000FDF740FF0020A063E0752076124908601F
:104D90004860886000F0A2FE012001021048FCF784
:104DA000BEF9BFF34F8F0F480F490160BFF34F8F1C
:104DB00000BF00BF00BF00BFFAE7C04610000020E0
:104DC0002206002078040020C409000028230000E7
:104DD000240000400C200040342C0140F40400204A
:104DE000200500200CED00E00400FA052A01002057
:104DF000F0B583B0EF4C089D2572A3712271A170AC
:104E0000207002952D0A0195E57100931B0A6371CC
:104E1000170AE7700E0A66704400072540B20028A2
:104E200000D571E1600064B2002C00D572E144004D
:104E300040B2002800D573E1600064B2002C00D5B8
:104E400074E1440040B2002800D575E1600064B20E
:104E5000002C00D576E1440040B2002800D577E16F
:104E6000600064B2002C00D568407040440040B23D
:104E7000002800D573E1600064B2002C00D574E115
:104E8000440040B2002800D575E1600064B2002CF7
:104E900000D576E1440040B2002800D577E16000FB
:104EA00064B2002C00D578E1440040B2002800D55F
:104EB00079E1600064B2002C00D5684048404100B0
:104EC00040B2002800D577E1480049B2002900D55A
:104ED00078E1410040B2002800D579E1480049B2AC
:104EE000002900D57AE1410040B2002800D57BE1DD
:104EF000480049B2002900D57CE1410040B20028B9
:104F000000D57DE1480049B2002900D568404740FE
:104F1000780079B2002900D579E1410040B200283B
:104F200000D57AE1480049B2002900D57BE1410073
:104F300040B2002800D57CE1480049B2002900D5E4
:104F40007DE1410040B2002800D57EE1480049B231
:104F5000002900D57FE1410040B2002800D569401A
:104F60004A40500051B2002900D57BE1410040B2D7
:104F7000002800D57CE1480049B2002900D57DE138
:104F8000410040B2002800D57EE1480049B2002926
:104F900000D57FE1410040B2002800D580E1480003
:104FA00049B2002900D581E1410040B2002800D576
:104FB00069404B40580059B2002900D57DE14100BD
:104FC00040B2002800D57EE1480049B2002900D552
:104FD0007FE1410040B2002800D580E1480049B29D
:104FE000002900D581E1410040B2002800D582E1CE
:104FF000480049B2002900D583E1410040B20028B1
:1050000000D56940009A4A40500051B2002900D5AD
:105010007EE1410040B2002800D57FE1480049B25E
:10502000002900D580E1410040B2002800D581E18F
:10503000480049B2002900D582E1410040B2002871
:1050400000D583E1480049B2002900D584E1410040
:1050500040B2002800D56940019A4A40500051B240
:10506000002900D57FE1410040B2002800D580E151
:10507000480049B2002900D581E1410040B2002832
:1050800000D582E1480049B2002900D583E1410002
:1050900040B2002800D584E1480049B2002900D57B
:1050A00085E1410040B2002800D56940029A4A409B
:1050B000500051B2002900D580E1410040B20028E3
:1050C00000D581E1480049B2002900D582E14100C4
:1050D00040B2002800D583E1480049B2002900D53C
:1050E00084E1410040B2002800D585E1480049B282
:1050F000002900D586E1410040B2002800D587E1B3
:10510000C648417203B0F0BD6C40600064B2002C30
:1051100000D48CE66840440040B2002800D48BE6FE
:105120006C40600064B2002C00D48AE66840440001
:1051300040B2002800D489E66C40600064B2002CC4
:1051400000D488E66840440040B2002800D487E6D6
:105150006C40600064B2002C00D585E685E66C40AA
:10516000600064B2002C00D48AE66840440040B27B
:10517000002800D489E66C40600064B2002C00D4A2
:1051800088E66840440040B2002800D487E66C40BE
:10519000600064B2002C00D486E66840440040B24F
:1051A000002800D485E66C40600064B2002C00D575
:1051B00083E683E6120500206940480049B20029D1
:1051C00000D486E66840410040B2002800D485E65D
:1051D0006940480049B2002900D484E66840410093
:1051E00040B2002800D483E66940480049B2002953
:1051F00000D482E66840410040B2002800D481E635
:105200006940480049B2002900D57FE67FE6684042
:10521000410040B2002800D484E66940480049B209
:10522000002900D483E66840410040B2002800D441
:1052300082E66940480049B2002900D481E668400E
:10524000410040B2002800D480E66940480049B2DD
:10525000002900D47FE66840410040B2002800D514
:105260007DE67DE66840410040B2002800D482E639
:105270006940480049B2002900D481E668404100F5
:1052800040B2002800D480E66940480049B20029B5
:1052900000D47FE66840410040B2002800D47EE69A
:1052A0006940480049B2002900D47DE668404100C9
:1052B00040B2002800D57BE67BE66840410040B262
:1052C000002800D480E66940480049B2002900D493
:1052D0007FE66840410040B2002800D47EE6694085
:1052E000480049B2002900D47DE66840410040B240
:1052F000002800D47CE66940480049B2002900D467
:105300007BE66840410040B2002800D579E679E6A6
:105310006840410040B2002800D47FE66940480060
:1053200049B2002900D47EE66840410040B200281E
:1053300000D47DE66940480049B2002900D47CE6EB
:105340006840410040B2002800D47BE66940480034
:1053500049B2002900D47AE66840410040B20028F2
:1053600000D578E678E66840410040B2002800D4D5
:105370007EE66940480049B2002900D47DE66840D5
:10538000410040B2002800D47CE66940480049B2A0
:10539000002900D47BE66840410040B2002800D4D8
:1053A0007AE66940480049B2002900D479E66840AD
:1053B000410040B2002800D577E677E6684041001A
:1053C00040B2002800D47DE66940480049B2002977
:1053D00000D47CE66840410040B2002800D47BE65F
:1053E0006940480049B2002900D47AE6684041008B
:1053F00040B2002800D479E66940480049B200294B
:1054000000D478E66840410040B2002800D477E636
:1054100069400248417203B0F0BDC0461205002049
:10542000F0B584B0674EF588002D02D00020F080E2
:1054300015E065490978002900D16448C10B09D1FC
:1054400003229303034001218C03A34200D091E087
:10545000062200E007223261D040550205435D4834
:105460000078800002905C490C1880236360290A50
:105470005A48405C0190C20018469043A0602F0932
:10548000794069400F2603968E43290189194D4AB8
:10549000516101990A011A404240E260C80300903C
:1054A000039807404D49C85D0F460190810200985E
:1054B000014303980540785D3D46039047010F4343
:1054C000AE5D3D4635433F488561880A18405040EF
:1054D00020614A0A1A4042406261080A184050405E
:1054E000A061019AD10019404140E16112011A40C6
:1054F0004A4022627F20C04302407909194051404E
:1055000061623A091A404A40A262F90819405140C2
:10551000E162039FFA001A404A40226339011940B0
:10552000514061632A461A404A40A2630240690022
:1055300019405140E163AA001A404A402264002108
:10554000254D029FE951F10019405140616432013B
:105550001A404A40A264710119405140E164B2010D
:105560001A404A4022650240F001C0B250406065D6
:1055700004B0F0BD07235B0303404C03A34201D1F9
:10558000052268E70F231B0303400C03A34201D14C
:10559000042260E71F23DB020340CC02A34200D1B8
:1055A00059E73F229202024089028A4201D1022237
:1055B00051E77F2149020140054A89184A424A4180
:1055C00049E7C046000400208B040020FFFF0000D4
:1055D00000FEFFFFE8000020E40600206C700008D9
:1055E000F0B5059C88421EDD0F461D4626468242C8
:1055F0001EDD1346974210DCB5421BD071194C10CA
:10560000D9194A10974217D08242EFDA511C1A4634
:10561000234634468142E7DB05E019463A463346E5
:105620002C468142E0DB824200DC23461846F0BD76
:105630003046F0BD2846F0BD2046F0BD0120800474
:1056400004490A6882430A600A46743A1060703955
:105650000860704780180240F0B581B0BE4DBF4869
:105660006860EFF3108072B6BD480078E86028618A
:1056700068617924994E9A4F3760A41E1421204600
:10568000FBF74BFEFDF7B8FB60080A3028600A20E4
:10569000FEF70EF8022CEFD8FDF7B4FA00202860D0
:1056A000B0490880B0480088686062B601B0F0BDBB
:1056B000F0B583B00320FDF79FFB00213520A94EF4
:1056C000A44A02910B4604E05B1CA81C313D7E2DD0
:1056D0004AD20546824881490860029830805019B4
:1056E000401E0778FF2FEFD0505D00282ED00A21F2
:1056F000994E3160F72141437D204001091821482E
:105700000193FBF70AFE04461F482146FBF705FEFE
:1057100070609349097848439049FBF7FEFDF060BB
:10572000306170610198C0B2FE214143CE19174823
:105730002146FBF7F2FD70438A4E6421FBF7EDFD35
:1057400080B2FDF7B5FF834A0023BEE700248248FC
:10575000C46004614461D8B2FE214143C819FDF719
:10576000A7FF7C4A2346B0E7FDF74CFA00207A4AAF
:1057700010607D4909885160308059485749086058
:1057800003B0F0BDC0D8A70000A86100A08601004A
:10579000B0B5714D71486860282028607048007865
:1057A000E860286168610220FDF726FB9624204608
:1057B000FDF77EFF49484A49016050202860204695
:1057C000FDF776FFFDF71EFA002028606549088086
:1057D000654800886860B0BDB0B55F4D5F486860DF
:1057E000322028605E480078E86028616861022005
:1057F000FDF702FB96242046FDF75AFF374838494B
:1058000001601E2028602046FDF752FFFDF7FAF9DF
:105810000020286053490880534800886860B0BD64
:10582000B0B5EFF3108072B64B4D4C4868602B4812
:105830002B4901605020286049480078E8602861C1
:1058400068610320FDF7D8FA64242046FDF730FF95
:10585000462028602046FDF72BFF282028602046A0
:10586000FDF726FFFDF7CEF9002028603D490880AE
:105870003D480088686062B6B0BDC046F0B581B0F2
:10588000354D36486860EFF3108072B6134E144FF2
:1058900037603C20286032480078E8602861686101
:1058A0000120FDF7A9FA4B242046FDF701FF502007
:1058B00028602046FDF7FCFE5A202860376020460D
:1058C000FDF7F6FEFDF79EF90020286025490880C7
:1058D00025480088686062B601B0F0BD0030004025
:1058E000AAAA0000B0B5EFF3108072B63020854947
:1058F000085C194DFF2802D0FFF7DAFE25E01748B3
:10590000686017480078E860286168610320FDF747
:1059100073FA37202860C8242046FDF7C9FE052009
:10592000FDF76AFA282028602046FDF7C1FE062010
:10593000FDF762FA192028602046FDF7B9FEFDF751
:1059400061F90848002101802960074800886860E3
:1059500062B6B0BD22060020282C0140690A000072
:105960001C050020BA0400204200002010B50A4C9B
:105970006078022808D0012803D1FDF7BBFB002086
:10598000607000F075FB10BD04480088FFF748FD0B
:105990000020607010BDC04678040020F404002090
:1059A000B0B503210A0505200007036893430122CF
:1059B00014051B190360930283628B0404689C43E3
:1059C0009304E3180360530283620B0404689C434E
:1059D0001304E318036013028362094B1C68082553
:1059E00025430424A5431D601C68022525439543D7
:1059F0001D60890303688B43D10359180160B0BD52
:105A000000040050F0B5012A24DB03241346234090
:105A1000551E032D01D200240EE0A24300240D5D8B
:105A2000055505190E1977786F70B778AF70F6784D
:105A3000EE70241DA242F2D1002B0BD0625C025505
:105A4000012B07D0621C555C8554022B02D0A21C8E
:105A5000515C8154F0BD0000B0B5E04801680222FD
:105A600011430160016891430160DD480146083936
:105A700041220A600A2101601349097881601349B3
:105A8000C16002460C3A136801210B4313600022E7
:105A90004260D54B0E4CDC60044614349C600D4CC7
:105AA00024785C600C4C1C604B020446143C256856
:105AB0001D43256003680B430360CF4B1A702038E9
:105AC00002680A430260B0BDE9000020FFFF000049
:105AD000200500208C0000208B09000002480021D6
:105AE000416001607047C0462404004080B504490D
:105AF0000A7804484270CA6CC02100F005F880BDE5
:105B00001000002022060020F0B503AF8BB06E46D7
:105B1000F41D1934B26171610546C817800F0B1866
:105B200003201946F0608143C91D072291436A464C
:105B3000501A99108546F061B160FBF7F0FA706970
:105B4000042874617CDBB1680A46F3681A40481E79
:105B50000328726001D200213AE09943F1600023EA
:105B600019463561E818C278120685782D04AA18FE
:105B700045782D0252193469E55C5219F469E250F6
:105B8000C279120685792D04AA1845792D02521979
:105B900005795519E2185560C57A2D06847A2404D2
:105BA0006419457A2D026419057A64199460C47BDE
:105BB0002406857B2D042C19457B2D02641935693B
:105BC000007B2018D0601033091DF0688842C9D1CD
:105BD0007268002A746933D089006818C278120686
:105BE00083781B049A184078000210186A5C8018A9
:105BF000F26950507268012A22D0081D30602A18BC
:105C0000D3781B06F36093781B04F0681B18527856
:105C100012029A1830682B5CD218F3691A50706817
:105C200002280DD008316818C278120683781B0448
:105C30009A184078000210186A5C8018F269505077
:105C4000B068A06001203061020444480368134238
:105C500008D00368134205D00368134202D00368DA
:105C60001342F3D14368002B03D4B3695B052DD1F4
:105C70000AE03B4B1C680546083D2C6074695B6874
:105C80002B60B3695B0521D1446802231C43446047
:105C9000B469E40AE4004568254345604468144358
:105CA00044600468144208D00468144205D00468B3
:105CB000144202D004681442F3D10468E40701D00E
:105CC0003169016044689C434460746900236360E7
:105CD000236025682346A468A542316935D2B4699A
:105CE000241DF4600DE044688C43446073695C6873
:105CF00008345C601C68A41C1C601C689D68AC4275
:105D000023D244680C4344601C68A400F1690C5918
:105D10005D68B1696C501C68A400F169641864681E
:105D20005D68F1684C510468144208D0046814425C
:105D300005D00468144202D004681442F3D1046808
:105D4000E4073169CFD00160CDE7C90742680A4353
:105D50004260FC1F053CA546F0BDC0461020024035
:105D60000800002010B51D4801680222114301609F
:105D70000168914301601A480146083960220A60AF
:105D8000032101601749097881605621C1600246EC
:105D90000C3A136801210B431360134A134BD36071
:105DA000034614339360124B1B7817335360114B27
:105DB00013604A020346143B1C6814431C600268CB
:105DC0000A430260CA03436A134343620A4A1170DA
:105DD000203802680A43026010BDC0462C10024001
:105DE000200400406204002008000240E406002075
:105DF000E80000209B0900007C070020F0B5844BE0
:105E00001C78002C00D0F0BD14253C26D4072F466A
:105E100000D037467F4C678697072F466DD427867C
:105E200057072F466ED4E78517072F466FD4A785EF
:105E3000D7062F4670D4678597062F4671D42785DD
:105E400057062F4600D53746E78452B2002A2A4625
:105E50006DDBA284C2072A466ED1628482072A467D
:105E60006FD4228442072A4670D4E28302072A466E
:105E700071D4A283C2062A4672D4628382062A465D
:105E800073D4228342062A4600D53246E28240B2CB
:105E9000002828466FDBA082C807284670D16082A0
:105EA0008807284671D420824807284672D4E081AA
:105EB0000807284673D4A081C806284674D4608198
:105EC0008806284675D420814806284676D4E08086
:105ED00048B2002800DA3546A5804F4800214162CB
:105EE000012119704D4A13684D4D1D40102D6BD185
:105EF000D4600346343393606AE0374627865707F9
:105F00002F4690D53746E78517072F468FD537465A
:105F1000A785D7062F468ED53746678597062F4625
:105F20008DD53746278557062F468CD48CE73246C9
:105F3000A284C2072A4690D03246628482072A464B
:105F40008FD53246228442072A468ED53246E283D6
:105F500002072A468DD53246A283C2062A468CD530
:105F60003246628382062A468BD532462283420617
:105F70002A468AD48AE73046A082C80728468ED0AF
:105F800030466082880728468DD5304620824807F3
:105F900028468CD53046E081080728468BD5304608
:105FA000A081C80628468AD53046608188062846E2
:105FB00089D5304620814806284688D53046E0807D
:105FC00048B2002887DB87E7946003463433D36008
:105FD0005368254C1C401C345460136802241C4335
:105FE0001460136808241C43146013680B43136087
:105FF0004A02C3681343C360026A0A430262CA03C7
:10600000436C1343436402680A430260F0BDC04618
:1060100020060020EA000020004401406C000240FD
:1060200010400000B0B50E48036808210B4304225D
:10603000934303600B4B5C680B4D25400B4C24785D
:106040002C195C6084688025254385601C680125C7
:1060500025431D60036813438B430360B0BDC046F6
:1060600000380140300002400000FFFF28010020FE
:10607000F0B585B0F84EB07C002805D0F74D687EAD
:10608000002805D0A88F2CE1F448818F418692E149
:106090007D22D100F248037958000491411826204E
:1060A000365CA88F0124E743002E039417D0814269
:1060B00042D2EB4AD27BE84C667CB24240D101240A
:1060C000EC73002602966E862E79002E4CD0029B31
:1060D000EB73A21AE24BDA73DF4E039C35E0814288
:1060E0002CD20297DE4BDF7BDB4E737C9F4239D193
:1060F0000197287D431E9841EB8FC82B234600D380
:106100000346D74EB48C366DA642029F00D8034694
:10611000012B7AD1D348002444600120D04EF07284
:106120000199401AF073FFF789FAAC723079400098
:1061300004994118A88F6AE0C74E17E0C64E72E076
:10614000EA7B002AC44E039C10D100222A71FC4A2B
:1061500000922F3A2F23FFF743FA6886C04803794D
:10616000A88F03E0029F54E0BB4E039C5F43049959
:106170007A18824212D9717C0126771AB84CE47BD6
:10618000A74211D1EE7300266E862C79002C25D003
:10619000EE73B34BD973039C049F0AE00F4659007A
:1061A000CA19824215D220E0E97B0029039C049F92
:1061B0000AD1002129712F230093E14BFFF710FA38
:1061C0006886A7480379A88FA34E5900CA1982424E
:1061D0000BD30022791A81420BD90BE09E4E039C0F
:1061E000049F5900CA198242F3D20122791A8142CE
:1061F00000D81446002C71D100216986EA7B002A60
:106200006CD001222A71E97368E0D000A887924E11
:10621000039CCB4A00922F3A2F23FFF7E1F96886BF
:106220008F480379A88F39465943049A8A188242C5
:106230002AD9717C01235C1A894EF67BB4422DD198
:10624000287D441EA041EC8FC82C039C00D304463B
:106250000294834EB48C366DA642029C00D804464C
:10626000012C7D4E1ED17E48C173C3727D4800242F
:106270004460FFF7E3F9AC7279480079474304982A
:106280003A180746A88F10E0049F5900CA198242A5
:106290001AD20122791A81421AD91AE06E4E039C51
:1062A000049F03E0049FAF873846039C2F21009191
:1062B0000021A34BFFF794F9688669480379A88FFA
:1062C0005900CA198242E4D30022791A814200D8C7
:1062D0001446002C02D10021A9726986697E00292A
:1062E00069D07D21CC0021462F3188422CD9F74F2F
:1062F000F97B727C914221D1B88C3E6D0122002342
:106300008642104600D81846EE8FC82E00D31A4693
:1063100010402A7D531E9A410243012A0BD1ED48B9
:10632000002646600120F872401AF873FFF786F9DC
:10633000AE72A88F01E00020A887E24E397A4200B1
:10634000511AE54A891869860146303989B2A14255
:106350002CD23746717C0122531ADC4CE67BB342C7
:106360001ED1A08C266D00238642104600D8184608
:10637000EE8FC82E00D31A4610402A7D531E9A4134
:106380000243012A0AD1E1730120E072D1480026BC
:106390004660FFF753F9AE72A88F01E00020A8878E
:1063A000217A4200511A313969863E462F2802D897
:1063B0000020A8726886C54DE879C34FB97C814238
:1063C0000AD9B07D002807D0FCF71CFCFFF736F98E
:1063D0006620B874002062E0F07C002805D0788E3A
:1063E0001D2821D8002179874CE07879002855D0E4
:1063F000387800281CD0696CAB6C788E00912F2106
:10640000B34AFFF7EDF80146B448FAF7A5FFF17E6D
:106410004908FAF7A1FFF884788E2E2808D80020C2
:106420006865788778663BE01E281DD11E2029E02C
:106430007C6EAB492046FAF722FF0028204600D1A7
:10644000A748FAF751FF7887A6492046FAF725FFB3
:10645000002825D1302022E02206002078040020E8
:1064600010000020F40400202821715C14224A430B
:10647000824207D9A02100911E212F23FFF7B0F8F7
:106480007887788E2821725C14215143814207D885
:106490008F4A0092A023FFF7A3F800E0788E788758
:1064A000387D002800D09DE0F87D002800D199E0DB
:1064B000F17C5024204648432F307A8F904232D8C6
:1064C000F87C002817D1FCF79DFBE87A00280DD155
:1064D000F87C002808D1FCF7B9FD8348286583487B
:1064E000834901600120F874FDF7C8FA0120F874AF
:1064F000288DF885F17CAB8D788F754A002905D001
:1065000011462F3900912833892103E011462F3994
:1065100000912F21FFF764F838862620305C002890
:1065200001D10020F873F07C44432F34788F8442EB
:1065300055D9F87A052813D802A1085C4000874491
:10654000FF0700001104070A0D04FFF745F907E0F3
:10655000FFF71EF904E0FFF77FF801E0FFF78EF97F
:106560000020F872307D002816D0F87C002870D00A
:10657000E87C3C214143288B40183C385E4902B2FC
:10658000FF2368339A4200DD40184A22B85202B213
:10659000782A10DCEF2310E000203886F97C0029EF
:1065A00075D14C4948600120E872307F002869D0DD
:1065B000FDF71EFB6BE00B46EF331B184E243B53DD
:1065C000F02A01DC772100E0773108184C2178525D
:1065D000F07C012801D10120387500203886F87B35
:1065E000002801D005B0F0BD2A467D8F2F2D11D394
:1065F000707F1E21C1403748406888420AD2134646
:10660000118D388E884201D239860846598D8842CC
:1066100000D93986908E3E8E864201D9388606464C
:10662000B879002805D02220105E864201DD86B2AE
:106630003E86BC6E00212046FAF713FE0028D1D119
:10664000302DCFD32046FAF74FFE3018388605B0EC
:10665000F0BD2048002141600124EC72B975307F03
:1066600000280CD0F07C002882D12920305C40002A
:10667000204940183884FFF793F9FC7378E7FCF75A
:10668000C1FA75E7F87B002801D1FCF7BBFA262098
:10669000315CF87B0029A3D00028A1D0B98F7D20E0
:1066A000C4002046FDF7E2FA0019388480B2698EF2
:1066B000491E814202DDFFF773F990E7FDF798FA72
:1066C0008DE7C0462206002078040020100000203C
:1066D000FF070000F4040020FFF7FFFF008793038B
:1066E00000E0FF440000404210270000240000406A
:1066F00088130000BC07000098FEFFFF0320000283
:1067000003490A688243012040021018086070475C
:106710000C040050014908607047C046342C014009
:10672000014908607047C046382C014001490860A3
:106730007047C0463C2C01400B2800D30B20400082
:10674000014908707047C0461C050020F0B591B0A3
:1067500000240E940125AA035A48C1681143C16060
:10676000C1680092114002910299022203920168CD
:106770001143016000680192104010900794069543
:10678000059504941098402602964F4802A9FBF7FD
:1067900007F9FF2000064D490A688243032083075A
:1067A000D2180A60E9064A4A11604A490A68332346
:1067B0001343CC2293430B60474F3968474A0A4042
:1067C00010323A6001033A688A433A6039682022FD
:1067D000914339603968B1433960396880220A438E
:1067E0003A6001023A688A433A608002396881431C
:1067F00039600F940C200D900C940B940A94E120B6
:10680000400209900894364C2646083E08A93046B6
:10681000FBF79CFC0720410722688A432260400660
:106820002168814321606807316881433160092014
:10683000C002211F0A6882430A602068222188431F
:1068400020602168082001432160316829433160BC
:106850006905AA0563690B4202D06369134211D12D
:1068600063690B4202D0636913420BD163690B4227
:1068700002D06369134205D163690B42EAD06369B0
:106880001342E7D0009A103239681140102904D120
:106890001449F9602034BC6003E01249B960203427
:1068A000FC607968104A0A401049097851187960EB
:1068B0003968019A1143396039680143396011B070
:1068C000F0BDC046341002400004005018E400E05F
:1068D00000E100E00808024030000240EFBFFFFF87
:1068E00008380140120500200000FFFF28010020A9
:1068F000F0B583B0F54F388EF887788D401C7885D9
:10690000788C401C7884B88C401CB884F87D0028B2
:106910004FD1787A00284CD1387E002849D0788E23
:10692000002803D050200021395242E05020395A2B
:10693000491C395289B2E64A91423AD3398F1F290C
:106940002AD30120F8757D20C000FCF799FEFF21B5
:10695000002002900246FFF751FA787A00281FD1F2
:10696000F87800281CD052203D5AB9204100284612
:10697000FAF7D3FC78726808B92813D3D54DD64EF0
:10698000029CFEF74DFF6420FCF792FE2E60641C13
:10699000787A8442F5D305E000213952397608E04F
:1069A000FEF73EFFB87E002803D12620FC49029A5C
:1069B0000A54FB4EF07F00280ED05420395A491C4F
:1069C0003952F84A52781423534389B28B4203D286
:1069D000002139520120B873387D002800D0D9E158
:1069E000F04CE07A002800D188E0F87C002800D143
:1069F00084E0FEF723FEFDF73FF9A17B00290DD0CF
:106A000000280DD0B87D401CB875227CC0B29042E1
:106A100014D8F87E002871D1387F16E0002806D0FF
:106A2000387F401C3877FA7E002A67D10BE0B87DAA
:106A3000401CB875227CC0B290424BD900203877F8
:106A4000FA7E002A5AD1002948D0617CC0B288421F
:106A500054D90120F876D44801684822B95200255B
:106A60000560226D0323534389B25918CA084B09A4
:106A70005B00D21A4026BA5389082165FB8691B281
:106A8000CA4E7268052A01D200680BE002688A4289
:106A900008D202688A4205D202688A4202D202689B
:106AA0008A42F3D3C2480160FCF7D0FABD753D7746
:106AB0007068401C70602621B94E715C727F0A4379
:106AC00015D014281AD3206D7D210901491C884254
:106AD00011D313E0F87E002810D1387FA17CC0B21A
